{
  "_format": "hh-sol-artifact-1",
  "contractName": "VINYL",
  "sourceName": "contracts/VINYL.sol",
  "abi": [
    {
      "anonymous": false,
      "inputs": [
        {
          "indexed": true,
          "internalType": "address",
          "name": "account",
          "type": "address"
        },
        {
          "indexed": true,
          "internalType": "address",
          "name": "operator",
          "type": "address"
        },
        {
          "indexed": false,
          "internalType": "bool",
          "name": "approved",
          "type": "bool"
        }
      ],
      "name": "ApprovalForAll",
      "type": "event"
    },
    {
      "anonymous": false,
      "inputs": [
        {
          "indexed": true,
          "internalType": "address",
          "name": "previousOwner",
          "type": "address"
        },
        {
          "indexed": true,
          "internalType": "address",
          "name": "newOwner",
          "type": "address"
        }
      ],
      "name": "OwnershipTransferred",
      "type": "event"
    },
    {
      "anonymous": false,
      "inputs": [
        {
          "indexed": true,
          "internalType": "address",
          "name": "operator",
          "type": "address"
        },
        {
          "indexed": true,
          "internalType": "address",
          "name": "from",
          "type": "address"
        },
        {
          "indexed": true,
          "internalType": "address",
          "name": "to",
          "type": "address"
        },
        {
          "indexed": false,
          "internalType": "uint256[]",
          "name": "ids",
          "type": "uint256[]"
        },
        {
          "indexed": false,
          "internalType": "uint256[]",
          "name": "values",
          "type": "uint256[]"
        }
      ],
      "name": "TransferBatch",
      "type": "event"
    },
    {
      "anonymous": false,
      "inputs": [
        {
          "indexed": true,
          "internalType": "address",
          "name": "operator",
          "type": "address"
        },
        {
          "indexed": true,
          "internalType": "address",
          "name": "from",
          "type": "address"
        },
        {
          "indexed": true,
          "internalType": "address",
          "name": "to",
          "type": "address"
        },
        {
          "indexed": false,
          "internalType": "uint256",
          "name": "id",
          "type": "uint256"
        },
        {
          "indexed": false,
          "internalType": "uint256",
          "name": "value",
          "type": "uint256"
        }
      ],
      "name": "TransferSingle",
      "type": "event"
    },
    {
      "anonymous": false,
      "inputs": [
        {
          "indexed": false,
          "internalType": "string",
          "name": "value",
          "type": "string"
        },
        {
          "indexed": true,
          "internalType": "uint256",
          "name": "id",
          "type": "uint256"
        }
      ],
      "name": "URI",
      "type": "event"
    },
    {
      "inputs": [],
      "name": "GOLD_VINYL",
      "outputs": [
        {
          "internalType": "uint8",
          "name": "",
          "type": "uint8"
        }
      ],
      "stateMutability": "view",
      "type": "function"
    },
    {
      "inputs": [],
      "name": "MINT_VINYL",
      "outputs": [
        {
          "internalType": "uint8",
          "name": "",
          "type": "uint8"
        }
      ],
      "stateMutability": "view",
      "type": "function"
    },
    {
      "inputs": [],
      "name": "ONYX_VINYL",
      "outputs": [
        {
          "internalType": "uint8",
          "name": "",
          "type": "uint8"
        }
      ],
      "stateMutability": "view",
      "type": "function"
    },
    {
      "inputs": [
        {
          "internalType": "address",
          "name": "_owner",
          "type": "address"
        },
        {
          "internalType": "uint256",
          "name": "_id",
          "type": "uint256"
        }
      ],
      "name": "balanceOf",
      "outputs": [
        {
          "internalType": "uint256",
          "name": "",
          "type": "uint256"
        }
      ],
      "stateMutability": "view",
      "type": "function"
    },
    {
      "inputs": [
        {
          "internalType": "address[]",
          "name": "_owners",
          "type": "address[]"
        },
        {
          "internalType": "uint256[]",
          "name": "_ids",
          "type": "uint256[]"
        }
      ],
      "name": "balanceOfBatch",
      "outputs": [
        {
          "internalType": "uint256[]",
          "name": "",
          "type": "uint256[]"
        }
      ],
      "stateMutability": "view",
      "type": "function"
    },
    {
      "inputs": [
        {
          "internalType": "uint256",
          "name": "_id",
          "type": "uint256"
        },
        {
          "internalType": "uint256",
          "name": "amount",
          "type": "uint256"
        }
      ],
      "name": "burn",
      "outputs": [],
      "stateMutability": "nonpayable",
      "type": "function"
    },
    {
      "inputs": [
        {
          "internalType": "uint256",
          "name": "index",
          "type": "uint256"
        }
      ],
      "name": "checkDoubleMint",
      "outputs": [
        {
          "internalType": "bool",
          "name": "",
          "type": "bool"
        }
      ],
      "stateMutability": "view",
      "type": "function"
    },
    {
      "inputs": [
        {
          "internalType": "uint256",
          "name": "_id",
          "type": "uint256"
        }
      ],
      "name": "getIDBinIndex",
      "outputs": [
        {
          "internalType": "uint256",
          "name": "bin",
          "type": "uint256"
        },
        {
          "internalType": "uint256",
          "name": "index",
          "type": "uint256"
        }
      ],
      "stateMutability": "pure",
      "type": "function"
    },
    {
      "inputs": [
        {
          "internalType": "uint256",
          "name": "_binValues",
          "type": "uint256"
        },
        {
          "internalType": "uint256",
          "name": "_index",
          "type": "uint256"
        }
      ],
      "name": "getValueInBin",
      "outputs": [
        {
          "internalType": "uint256",
          "name": "",
          "type": "uint256"
        }
      ],
      "stateMutability": "pure",
      "type": "function"
    },
    {
      "inputs": [],
      "name": "isActive",
      "outputs": [
        {
          "internalType": "bool",
          "name": "",
          "type": "bool"
        }
      ],
      "stateMutability": "view",
      "type": "function"
    },
    {
      "inputs": [
        {
          "internalType": "address",
          "name": "_owner",
          "type": "address"
        },
        {
          "internalType": "address",
          "name": "_operator",
          "type": "address"
        }
      ],
      "name": "isApprovedForAll",
      "outputs": [
        {
          "internalType": "bool",
          "name": "isOperator",
          "type": "bool"
        }
      ],
      "stateMutability": "view",
      "type": "function"
    },
    {
      "inputs": [],
      "name": "merkleRoot",
      "outputs": [
        {
          "internalType": "bytes32",
          "name": "",
          "type": "bytes32"
        }
      ],
      "stateMutability": "view",
      "type": "function"
    },
    {
      "inputs": [
        {
          "internalType": "uint256",
          "name": "index",
          "type": "uint256"
        },
        {
          "internalType": "uint256",
          "name": "mint_type",
          "type": "uint256"
        },
        {
          "internalType": "bytes32[]",
          "name": "_proof",
          "type": "bytes32[]"
        }
      ],
      "name": "mintNFT",
      "outputs": [],
      "stateMutability": "nonpayable",
      "type": "function"
    },
    {
      "inputs": [],
      "name": "owner",
      "outputs": [
        {
          "internalType": "address",
          "name": "",
          "type": "address"
        }
      ],
      "stateMutability": "view",
      "type": "function"
    },
    {
      "inputs": [],
      "name": "renounceOwnership",
      "outputs": [],
      "stateMutability": "nonpayable",
      "type": "function"
    },
    {
      "inputs": [
        {
          "internalType": "address",
          "name": "_from",
          "type": "address"
        },
        {
          "internalType": "address",
          "name": "_to",
          "type": "address"
        },
        {
          "internalType": "uint256[]",
          "name": "_ids",
          "type": "uint256[]"
        },
        {
          "internalType": "uint256[]",
          "name": "_amounts",
          "type": "uint256[]"
        },
        {
          "internalType": "bytes",
          "name": "_data",
          "type": "bytes"
        }
      ],
      "name": "safeBatchTransferFrom",
      "outputs": [],
      "stateMutability": "nonpayable",
      "type": "function"
    },
    {
      "inputs": [
        {
          "internalType": "address",
          "name": "_from",
          "type": "address"
        },
        {
          "internalType": "address",
          "name": "_to",
          "type": "address"
        },
        {
          "internalType": "uint256",
          "name": "_id",
          "type": "uint256"
        },
        {
          "internalType": "uint256",
          "name": "_amount",
          "type": "uint256"
        },
        {
          "internalType": "bytes",
          "name": "_data",
          "type": "bytes"
        }
      ],
      "name": "safeTransferFrom",
      "outputs": [],
      "stateMutability": "nonpayable",
      "type": "function"
    },
    {
      "inputs": [
        {
          "internalType": "address",
          "name": "_operator",
          "type": "address"
        },
        {
          "internalType": "bool",
          "name": "_approved",
          "type": "bool"
        }
      ],
      "name": "setApprovalForAll",
      "outputs": [],
      "stateMutability": "nonpayable",
      "type": "function"
    },
    {
      "inputs": [
        {
          "internalType": "bytes32",
          "name": "merkleRootHash",
          "type": "bytes32"
        }
      ],
      "name": "setMerkleRoot",
      "outputs": [],
      "stateMutability": "nonpayable",
      "type": "function"
    },
    {
      "inputs": [
        {
          "internalType": "string",
          "name": "_URI",
          "type": "string"
        }
      ],
      "name": "setURI",
      "outputs": [],
      "stateMutability": "nonpayable",
      "type": "function"
    },
    {
      "inputs": [
        {
          "internalType": "bytes4",
          "name": "_interfaceID",
          "type": "bytes4"
        }
      ],
      "name": "supportsInterface",
      "outputs": [
        {
          "internalType": "bool",
          "name": "",
          "type": "bool"
        }
      ],
      "stateMutability": "pure",
      "type": "function"
    },
    {
      "inputs": [],
      "name": "toggleActive",
      "outputs": [],
      "stateMutability": "nonpayable",
      "type": "function"
    },
    {
      "inputs": [
        {
          "internalType": "address",
          "name": "newOwner",
          "type": "address"
        }
      ],
      "name": "transferOwnership",
      "outputs": [],
      "stateMutability": "nonpayable",
      "type": "function"
    },
    {
      "inputs": [
        {
          "internalType": "uint256",
          "name": "_tokenId",
          "type": "uint256"
        }
      ],
      "name": "uri",
      "outputs": [
        {
          "internalType": "string",
          "name": "",
          "type": "string"
        }
      ],
      "stateMutability": "view",
      "type": "function"
    },
    {
      "inputs": [
        {
          "internalType": "bytes32",
          "name": "root",
          "type": "bytes32"
        },
        {
          "internalType": "bytes32[]",
          "name": "proof",
          "type": "bytes32[]"
        },
        {
          "internalType": "bytes32",
          "name": "leaf",
          "type": "bytes32"
        }
      ],
      "name": "verify",
      "outputs": [
        {
          "internalType": "bool",
          "name": "",
          "type": "bool"
        }
      ],
      "stateMutability": "pure",
      "type": "function"
    }
  ],
  "bytecode": "0x60806040526000600560006101000a81548160ff0219169083151502179055507fb6988e0a864d0384016113cbbd82753e7094a8476d74bf7e13a9e28e80a1542460001b6006553480156200005357600080fd5b5062000074620000686200008260201b60201c565b6200008a60201b60201c565b600160038190555062000150565b600033905090565b6000600260009054906101000a900473ffffffffffffffffffffffffffffffffffffffff16905081600260006101000a81548173ffffffffffffffffffffffffffffffffffffffff021916908373ffffffffffffffffffffffffffffffffffffffff1602179055508173ffffffffffffffffffffffffffffffffffffffff168173ffffffffffffffffffffffffffffffffffffffff167f8be0079c531659141344cd1fd0a4f28419497f9722a3daafe3b4186f6b6457e060405160405180910390a35050565b6149a680620001606000396000f3fe608060405234801561001057600080fd5b50600436106101725760003560e01c80637cb64759116100de578063be3374f411610097578063e985e9c511610071578063e985e9c514610438578063eaec5f8114610468578063f242432a14610498578063f2fde38b146104b457610172565b8063be3374f4146103cb578063c43b9a2e146103e9578063db90e83c1461040757610172565b80637cb647591461030b578063806101be146103275780638da5cb5b14610345578063a22cb46514610363578063b390c0ab1461037f578063b7c4fbc51461039b57610172565b806329c68dc11161013057806329c68dc1146102715780632eb2c2d61461027b5780632eb4a7ab146102975780634e1273f4146102b557806365aad4fd146102e5578063715018a61461030157610172565b8062fdd58e1461017757806301ffc9a7146101a757806302fe5305146101d75780630a02831c146101f35780630e89341c1461022357806322f3e2d414610253575b600080fd5b610191600480360381019061018c9190612f10565b6104d0565b60405161019e9190613b5c565b60405180910390f35b6101c160048036038101906101bc9190613064565b610549565b6040516101ce91906138a4565b60405180910390f35b6101f160048036038101906101ec91906130be565b6105cb565b005b61020d60048036038101906102089190612ff5565b610661565b60405161021a91906138a4565b60405180910390f35b61023d60048036038101906102389190613107565b610717565b60405161024a91906138da565b60405180910390f35b61025b61074b565b60405161026891906138a4565b60405180910390f35b61027961075e565b005b61029560048036038101906102909190612d6a565b610806565b005b61029f610916565b6040516102ac91906138bf565b60405180910390f35b6102cf60048036038101906102ca9190612f50565b61091c565b6040516102dc919061384b565b60405180910390f35b6102ff60048036038101906102fa9190613174565b610bf3565b005b610309610d7b565b005b61032560048036038101906103209190612fc8565b610e03565b005b61032f610e89565b60405161033c9190613ba0565b60405180910390f35b61034d610e8e565b60405161035a919061376e565b60405180910390f35b61037d60048036038101906103789190612ed0565b610eb8565b005b61039960048036038101906103949190613134565b610fb5565b005b6103b560048036038101906103b09190613107565b61101a565b6040516103c291906138a4565b60405180910390f35b6103d3611077565b6040516103e09190613ba0565b60405180910390f35b6103f161107c565b6040516103fe9190613ba0565b60405180910390f35b610421600480360381019061041c9190613107565b611081565b60405161042f929190613b77565b60405180910390f35b610452600480360381019061044d9190612d2a565b6110c1565b60405161045f91906138a4565b60405180910390f35b610482600480360381019061047d9190613134565b611155565b60405161048f9190613b5c565b60405180910390f35b6104b260048036038101906104ad9190612e39565b61118d565b005b6104ce60048036038101906104c99190612cfd565b61129d565b005b60008060006104de84611081565b809250819350505061053f6000808773ffffffffffffffffffffffffffffffffffffffff1673ffffffffffffffffffffffffffffffffffffffff16815260200190815260200160002060008481526020019081526020016000205482611155565b9250505092915050565b60007fd9b67a26000000000000000000000000000000000000000000000000000000007bffffffffffffffffffffffffffffffffffffffffffffffffffffffff1916827bffffffffffffffffffffffffffffffffffffffffffffffffffffffff191614156105ba57600190506105c6565b6105c382611395565b90505b919050565b6105d36113e6565b73ffffffffffffffffffffffffffffffffffffffff166105f1610e8e565b73ffffffffffffffffffffffffffffffffffffffff1614610647576040517f08c379a000000000000000000000000000000000000000000000000000000000815260040161063e90613a3c565b60405180910390fd5b806004908051906020019061065d929190612922565b5050565b60008082905060005b84518110156107095760008582815181106106885761068761427b565b5b602002602001015190508083116106c95782816040516020016106ac929190613713565b6040516020818303038152906040528051906020012092506106f5565b80836040516020016106dc929190613713565b6040516020818303038152906040528051906020012092505b5080806107019061410d565b91505061066a565b508481149150509392505050565b60606004610724836113ee565b60405160200161073592919061373f565b6040516020818303038152906040529050919050565b600560009054906101000a900460ff1681565b6107666113e6565b73ffffffffffffffffffffffffffffffffffffffff16610784610e8e565b73ffffffffffffffffffffffffffffffffffffffff16146107da576040517f08c379a00000000000000000000000000000000000000000000000000000000081526004016107d190613a3c565b60405180910390fd5b600560009054906101000a900460ff1615600560006101000a81548160ff021916908315150217905550565b8473ffffffffffffffffffffffffffffffffffffffff163373ffffffffffffffffffffffffffffffffffffffff161480610846575061084585336110c1565b5b610885576040517f08c379a000000000000000000000000000000000000000000000000000000000815260040161087c906139fc565b60405180910390fd5b600073ffffffffffffffffffffffffffffffffffffffff168473ffffffffffffffffffffffffffffffffffffffff1614156108f5576040517f08c379a00000000000000000000000000000000000000000000000000000000081526004016108ec9061391c565b60405180910390fd5b6109018585858561154f565b61090f858585855a86611acd565b5050505050565b60065481565b606060008351905082518114610967576040517f08c379a000000000000000000000000000000000000000000000000000000000815260040161095e906138fc565b60405180910390fd5b60008061098e856000815181106109815761098061427b565b5b6020026020010151611081565b915091506000806000886000815181106109ab576109aa61427b565b5b602002602001015173ffffffffffffffffffffffffffffffffffffffff1673ffffffffffffffffffffffffffffffffffffffff1681526020019081526020016000206000848152602001908152602001600020549050600083905060008567ffffffffffffffff811115610a2257610a216142aa565b5b604051908082528060200260200182016040528015610a505781602001602082028036833780820191505090505b509050610a5d8385611155565b81600081518110610a7157610a7061427b565b5b6020026020010181815250506000600190505b86811015610be357610aaf898281518110610aa257610aa161427b565b5b6020026020010151611081565b80965081975050508286141580610b325750898181518110610ad457610ad361427b565b5b602002602001015173ffffffffffffffffffffffffffffffffffffffff168a600183610b009190613fa9565b81518110610b1157610b1061427b565b5b602002602001015173ffffffffffffffffffffffffffffffffffffffff1614155b15610ba7576000808b8381518110610b4d57610b4c61427b565b5b602002602001015173ffffffffffffffffffffffffffffffffffffffff1673ffffffffffffffffffffffffffffffffffffffff16815260200190815260200160002060008781526020019081526020016000205493508592505b610bb18486611155565b828281518110610bc457610bc361427b565b5b6020026020010181815250508080610bdb9061410d565b915050610a84565b5080965050505050505092915050565b60026003541415610c39576040517f08c379a0000000000000000000000000000000000000000000000000000000008152600401610c3090613b3c565b60405180910390fd5b6002600381905550600560009054906101000a900460ff16610c90576040517f08c379a0000000000000000000000000000000000000000000000000000000008152600401610c8790613a1c565b60405180910390fd5b60011515610c9d8461101a565b151514610cdf576040517f08c379a0000000000000000000000000000000000000000000000000000000008152600401610cd690613abc565b60405180910390fd5b6000338385604051602001610cf6939291906136d6565b604051602081830303815290604052805190602001209050610d1b6006548383610661565b610d5a576040517f08c379a0000000000000000000000000000000000000000000000000000000008152600401610d51906139dc565b60405180910390fd5b610d6384611c1b565b610d6d3384611c82565b506001600381905550505050565b610d836113e6565b73ffffffffffffffffffffffffffffffffffffffff16610da1610e8e565b73ffffffffffffffffffffffffffffffffffffffff1614610df7576040517f08c379a0000000000000000000000000000000000000000000000000000000008152600401610dee90613a3c565b60405180910390fd5b610e016000611f1c565b565b610e0b6113e6565b73ffffffffffffffffffffffffffffffffffffffff16610e29610e8e565b73ffffffffffffffffffffffffffffffffffffffff1614610e7f576040517f08c379a0000000000000000000000000000000000000000000000000000000008152600401610e7690613a3c565b60405180910390fd5b8060068190555050565b600281565b6000600260009054906101000a900473ffffffffffffffffffffffffffffffffffffffff16905090565b80600160003373ffffffffffffffffffffffffffffffffffffffff1673ffffffffffffffffffffffffffffffffffffffff16815260200190815260200160002060008473ffffffffffffffffffffffffffffffffffffffff1673ffffffffffffffffffffffffffffffffffffffff16815260200190815260200160002060006101000a81548160ff0219169083151502179055508173ffffffffffffffffffffffffffffffffffffffff163373ffffffffffffffffffffffffffffffffffffffff167f17307eab39ab6107e8899845ad3d59bd9653f200f220920489ca2b5937696c3183604051610fa991906138a4565b60405180910390a35050565b60026003541415610ffb576040517f08c379a0000000000000000000000000000000000000000000000000000000008152600401610ff290613b3c565b60405180910390fd5b600260038190555061100e338383611fe2565b60016003819055505050565b600080600760006101008561102f9190613dad565b8152602001908152602001600020549050600061010084611050919061418e565b6001901b905060008183161461106b57600092505050611072565b6001925050505b919050565b600181565b600081565b60008060206101006110939190613dad565b8361109e9190613dad565b915060206101006110af9190613dad565b836110ba919061418e565b9050915091565b6000600160008473ffffffffffffffffffffffffffffffffffffffff1673ffffffffffffffffffffffffffffffffffffffff16815260200190815260200160002060008373ffffffffffffffffffffffffffffffffffffffff1673ffffffffffffffffffffffffffffffffffffffff16815260200190815260200160002060009054906101000a900460ff16905092915050565b600080600160206001901b61116a9190613fa9565b9050600083602061117b9190613f4f565b9050818186901c169250505092915050565b8473ffffffffffffffffffffffffffffffffffffffff163373ffffffffffffffffffffffffffffffffffffffff1614806111cd57506111cc85336110c1565b5b61120c576040517f08c379a00000000000000000000000000000000000000000000000000000000081526004016112039061397c565b60405180910390fd5b600073ffffffffffffffffffffffffffffffffffffffff168473ffffffffffffffffffffffffffffffffffffffff16141561127c576040517f08c379a000000000000000000000000000000000000000000000000000000000815260040161127390613a9c565b60405180910390fd5b61128885858585612073565b611296858585855a86612111565b5050505050565b6112a56113e6565b73ffffffffffffffffffffffffffffffffffffffff166112c3610e8e565b73ffffffffffffffffffffffffffffffffffffffff1614611319576040517f08c379a000000000000000000000000000000000000000000000000000000000815260040161131090613a3c565b60405180910390fd5b600073ffffffffffffffffffffffffffffffffffffffff168173ffffffffffffffffffffffffffffffffffffffff161415611389576040517f08c379a00000000000000000000000000000000000000000000000000000000081526004016113809061393c565b60405180910390fd5b61139281611f1c565b50565b60006301ffc9a760e01b7bffffffffffffffffffffffffffffffffffffffffffffffffffffffff1916827bffffffffffffffffffffffffffffffffffffffffffffffffffffffff1916149050919050565b600033905090565b60606000821415611436576040518060400160405280600181526020017f3000000000000000000000000000000000000000000000000000000000000000815250905061154a565b600082905060005b600082146114685780806114519061410d565b915050600a826114619190613dad565b915061143e565b60008167ffffffffffffffff811115611484576114836142aa565b5b6040519080825280601f01601f1916602001820160405280156114b65781602001600182028036833780820191505090505b5090505b60008514611543576001826114cf9190613fa9565b9150600a856114de919061418e565b60306114ea9190613d57565b60f81b818381518110611500576114ff61427b565b5b60200101907effffffffffffffffffffffffffffffffffffffffffffffffffffffffffffff1916908160001a905350600a8561153c9190613dad565b94506114ba565b8093505050505b919050565b60008251905081518114611598576040517f08c379a000000000000000000000000000000000000000000000000000000000815260040161158f9061399c565b60405180910390fd5b8373ffffffffffffffffffffffffffffffffffffffff168573ffffffffffffffffffffffffffffffffffffffff16141580156115d45750600081115b156119a857600080611600856000815181106115f3576115f261427b565b5b6020026020010151611081565b91509150600061167d6000808a73ffffffffffffffffffffffffffffffffffffffff1673ffffffffffffffffffffffffffffffffffffffff168152602001908152602001600020600085815260200190815260200160002054838760008151811061166e5761166d61427b565b5b6020026020010151600161225f565b905060006116f86000808a73ffffffffffffffffffffffffffffffffffffffff1673ffffffffffffffffffffffffffffffffffffffff16815260200190815260200160002060008681526020019081526020016000205484886000815181106116e9576116e861427b565b5b6020026020010151600061225f565b905060008490506000600190505b868110156118f5576117318982815181106117245761172361427b565b5b6020026020010151611081565b809650819750505081861461189057836000808d73ffffffffffffffffffffffffffffffffffffffff1673ffffffffffffffffffffffffffffffffffffffff168152602001908152602001600020600084815260200190815260200160002081905550826000808c73ffffffffffffffffffffffffffffffffffffffff1673ffffffffffffffffffffffffffffffffffffffff1681526020019081526020016000206000848152602001908152602001600020819055506000808c73ffffffffffffffffffffffffffffffffffffffff1673ffffffffffffffffffffffffffffffffffffffff16815260200190815260200160002060008781526020019081526020016000205493506000808b73ffffffffffffffffffffffffffffffffffffffff1673ffffffffffffffffffffffffffffffffffffffff16815260200190815260200160002060008781526020019081526020016000205492508591505b6118b784868a84815181106118a8576118a761427b565b5b6020026020010151600161225f565b93506118e083868a84815181106118d1576118d061427b565b5b6020026020010151600061225f565b925080806118ed9061410d565b915050611706565b50826000808c73ffffffffffffffffffffffffffffffffffffffff1673ffffffffffffffffffffffffffffffffffffffff168152602001908152602001600020600087815260200190815260200160002081905550816000808b73ffffffffffffffffffffffffffffffffffffffff1673ffffffffffffffffffffffffffffffffffffffff1681526020019081526020016000206000878152602001908152602001600020819055505050505050611a48565b60005b81811015611a46578281815181106119c6576119c561427b565b5b60200260200101516119f2878684815181106119e5576119e461427b565b5b60200260200101516104d0565b1015611a33576040517f08c379a0000000000000000000000000000000000000000000000000000000008152600401611a2a90613a5c565b60405180910390fd5b8080611a3e9061410d565b9150506119ab565b505b8373ffffffffffffffffffffffffffffffffffffffff168573ffffffffffffffffffffffffffffffffffffffff163373ffffffffffffffffffffffffffffffffffffffff167f4a39dc06d4c0dbc64b70af90fd698a233a518aa5d07e595d983b8c0526c8f7fb8686604051611abe92919061386d565b60405180910390a45050505050565b611aec8573ffffffffffffffffffffffffffffffffffffffff1661247f565b15611c135760008573ffffffffffffffffffffffffffffffffffffffff1663bc197c8184338a8989886040518763ffffffff1660e01b8152600401611b35959493929190613789565b602060405180830381600088803b158015611b4f57600080fd5b5087f1158015611b63573d6000803e3d6000fd5b50505050506040513d601f19601f82011682018060405250810190611b889190613091565b905063bc197c8160e01b7bffffffffffffffffffffffffffffffffffffffffffffffffffffffff1916817bffffffffffffffffffffffffffffffffffffffffffffffffffffffff191614611c11576040517f08c379a0000000000000000000000000000000000000000000000000000000008152600401611c08906139bc565b60405180910390fd5b505b505050505050565b60006007600061010084611c2f9190613dad565b8152602001908152602001600020549050600061010083611c50919061418e565b6001901b90508082176007600061010086611c6b9190613dad565b815260200190815260200160002081905550505050565b6000600267ffffffffffffffff811115611c9f57611c9e6142aa565b5b604051908082528060200260200182016040528015611ccd5781602001602082028036833780820191505090505b5090506000600267ffffffffffffffff811115611ced57611cec6142aa565b5b604051908082528060200260200182016040528015611d1b5781602001602082028036833780820191505090505b5090506001831415611d4c57611d4784600060ff166001604051806020016040528060008152506124a2565b611f16565b6002831415611d7a57611d7584600060ff166002604051806020016040528060008152506124a2565b611f15565b6003831415611e3157600060ff1682600081518110611d9c57611d9b61427b565b5b602002602001018181525050600160ff1682600181518110611dc157611dc061427b565b5b602002602001018181525050600281600081518110611de357611de261427b565b5b602002602001018181525050600181600181518110611e0557611e0461427b565b5b602002602001018181525050611e2c84838360405180602001604052806000815250612543565b611f14565b6004831415611ee857600060ff1682600081518110611e5357611e5261427b565b5b602002602001018181525050600160ff1682600181518110611e7857611e7761427b565b5b602002602001018181525050600481600081518110611e9a57611e9961427b565b5b602002602001018181525050600281600181518110611ebc57611ebb61427b565b5b602002602001018181525050611ee384838360405180602001604052806000815250612543565b611f13565b6005831415611f1257611f1184600260ff166001604051806020016040528060008152506124a2565b5b5b5b5b5b50505050565b6000600260009054906101000a900473ffffffffffffffffffffffffffffffffffffffff16905081600260006101000a81548173ffffffffffffffffffffffffffffffffffffffff021916908373ffffffffffffffffffffffffffffffffffffffff1602179055508173ffffffffffffffffffffffffffffffffffffffff168173ffffffffffffffffffffffffffffffffffffffff167f8be0079c531659141344cd1fd0a4f28419497f9722a3daafe3b4186f6b6457e060405160405180910390a35050565b611fef8383836001612858565b600073ffffffffffffffffffffffffffffffffffffffff168373ffffffffffffffffffffffffffffffffffffffff163373ffffffffffffffffffffffffffffffffffffffff167fc3d58168c5ae7397731d063d5bbf3d657854427343f4c083240f7aacaa2d0f628585604051612066929190613b77565b60405180910390a4505050565b6120808483836001612858565b61208d8383836000612858565b8273ffffffffffffffffffffffffffffffffffffffff168473ffffffffffffffffffffffffffffffffffffffff163373ffffffffffffffffffffffffffffffffffffffff167fc3d58168c5ae7397731d063d5bbf3d657854427343f4c083240f7aacaa2d0f628585604051612103929190613b77565b60405180910390a450505050565b6121308573ffffffffffffffffffffffffffffffffffffffff1661247f565b156122575760008573ffffffffffffffffffffffffffffffffffffffff1663f23a6e6184338a8989886040518763ffffffff1660e01b81526004016121799594939291906137f1565b602060405180830381600088803b15801561219357600080fd5b5087f11580156121a7573d6000803e3d6000fd5b50505050506040513d601f19601f820116820180604052508101906121cc9190613091565b905063f23a6e6160e01b7bffffffffffffffffffffffffffffffffffffffffffffffffffffffff1916817bffffffffffffffffffffffffffffffffffffffffffffffffffffffff191614612255576040517f08c379a000000000000000000000000000000000000000000000000000000000815260040161224c90613a7c565b60405180910390fd5b505b505050505050565b60008084602061226f9190613f4f565b90506000600160206001901b6122859190613fa9565b90506000600181111561229b5761229a61421d565b5b8460018111156122ae576122ad61421d565b5b141561236c578185901b876122c39190613d57565b925086831015612308576040517f08c379a00000000000000000000000000000000000000000000000000000000081526004016122ff90613b1c565b60405180910390fd5b602060026123169190613e31565b8582848a901c166123279190613d57565b10612367576040517f08c379a000000000000000000000000000000000000000000000000000000000815260040161235e90613b1c565b60405180910390fd5b612475565b60018081111561237f5761237e61421d565b5b8460018111156123925761239161421d565b5b1415612439578185901b876123a79190613fa9565b9250868311156123ec576040517f08c379a00000000000000000000000000000000000000000000000000000000081526004016123e39061395c565b60405180910390fd5b84818389901c161015612434576040517f08c379a000000000000000000000000000000000000000000000000000000000815260040161242b9061395c565b60405180910390fd5b612474565b6040517f08c379a000000000000000000000000000000000000000000000000000000000815260040161246b90613adc565b60405180910390fd5b5b5050949350505050565b6000808273ffffffffffffffffffffffffffffffffffffffff163b119050919050565b6124af8484846000612858565b8373ffffffffffffffffffffffffffffffffffffffff16600073ffffffffffffffffffffffffffffffffffffffff163373ffffffffffffffffffffffffffffffffffffffff167fc3d58168c5ae7397731d063d5bbf3d657854427343f4c083240f7aacaa2d0f628686604051612526929190613b77565b60405180910390a461253d60008585855a86612111565b50505050565b8151835114612587576040517f08c379a000000000000000000000000000000000000000000000000000000000815260040161257e90613afc565b60405180910390fd5b6000835111156127c4576000806125b8856000815181106125ab576125aa61427b565b5b6020026020010151611081565b9150915060006126356000808973ffffffffffffffffffffffffffffffffffffffff1673ffffffffffffffffffffffffffffffffffffffff16815260200190815260200160002060008581526020019081526020016000205483876000815181106126265761262561427b565b5b6020026020010151600061225f565b905060008651905060008490506000600190505b82811015612769576126748982815181106126675761266661427b565b5b6020026020010151611081565b809650819750505081861461272d57836000808c73ffffffffffffffffffffffffffffffffffffffff1673ffffffffffffffffffffffffffffffffffffffff1681526020019081526020016000206000848152602001908152602001600020819055506000808b73ffffffffffffffffffffffffffffffffffffffff1673ffffffffffffffffffffffffffffffffffffffff16815260200190815260200160002060008781526020019081526020016000205493508591505b61275484868a84815181106127455761274461427b565b5b6020026020010151600061225f565b935080806127619061410d565b915050612649565b50826000808b73ffffffffffffffffffffffffffffffffffffffff1673ffffffffffffffffffffffffffffffffffffffff16815260200190815260200160002060008781526020019081526020016000208190555050505050505b8373ffffffffffffffffffffffffffffffffffffffff16600073ffffffffffffffffffffffffffffffffffffffff163373ffffffffffffffffffffffffffffffffffffffff167f4a39dc06d4c0dbc64b70af90fd698a233a518aa5d07e595d983b8c0526c8f7fb868660405161283b92919061386d565b60405180910390a461285260008585855a86611acd565b50505050565b60008061286485611081565b80925081935050506128c76000808873ffffffffffffffffffffffffffffffffffffffff1673ffffffffffffffffffffffffffffffffffffffff16815260200190815260200160002060008481526020019081526020016000205482868661225f565b6000808873ffffffffffffffffffffffffffffffffffffffff1673ffffffffffffffffffffffffffffffffffffffff168152602001908152602001600020600084815260200190815260200160002081905550505050505050565b82805461292e906140aa565b90600052602060002090601f0160209004810192826129505760008555612997565b82601f1061296957805160ff1916838001178555612997565b82800160010185558215612997579182015b8281111561299657825182559160200191906001019061297b565b5b5090506129a491906129a8565b5090565b5b808211156129c15760008160009055506001016129a9565b5090565b60006129d86129d384613be0565b613bbb565b905080838252602082019050828560208602820111156129fb576129fa6142de565b5b60005b85811015612a2b5781612a118882612b99565b8452602084019350602083019250506001810190506129fe565b5050509392505050565b6000612a48612a4384613c0c565b613bbb565b90508083825260208201905082856020860282011115612a6b57612a6a6142de565b5b60005b85811015612a9b5781612a818882612c4d565b845260208401935060208301925050600181019050612a6e565b5050509392505050565b6000612ab8612ab384613c38565b613bbb565b90508083825260208201905082856020860282011115612adb57612ada6142de565b5b60005b85811015612b0b5781612af18882612ce8565b845260208401935060208301925050600181019050612ade565b5050509392505050565b6000612b28612b2384613c64565b613bbb565b905082815260208101848484011115612b4457612b436142e3565b5b612b4f848285614068565b509392505050565b6000612b6a612b6584613c95565b613bbb565b905082815260208101848484011115612b8657612b856142e3565b5b612b91848285614068565b509392505050565b600081359050612ba8816148fd565b92915050565b600082601f830112612bc357612bc26142d9565b5b8135612bd38482602086016129c5565b91505092915050565b600082601f830112612bf157612bf06142d9565b5b8135612c01848260208601612a35565b91505092915050565b600082601f830112612c1f57612c1e6142d9565b5b8135612c2f848260208601612aa5565b91505092915050565b600081359050612c4781614914565b92915050565b600081359050612c5c8161492b565b92915050565b600081359050612c7181614942565b92915050565b600081519050612c8681614942565b92915050565b600082601f830112612ca157612ca06142d9565b5b8135612cb1848260208601612b15565b91505092915050565b600082601f830112612ccf57612cce6142d9565b5b8135612cdf848260208601612b57565b91505092915050565b600081359050612cf781614959565b92915050565b600060208284031215612d1357612d126142ed565b5b6000612d2184828501612b99565b91505092915050565b60008060408385031215612d4157612d406142ed565b5b6000612d4f85828601612b99565b9250506020612d6085828601612b99565b9150509250929050565b600080600080600060a08688031215612d8657612d856142ed565b5b6000612d9488828901612b99565b9550506020612da588828901612b99565b945050604086013567ffffffffffffffff811115612dc657612dc56142e8565b5b612dd288828901612c0a565b935050606086013567ffffffffffffffff811115612df357612df26142e8565b5b612dff88828901612c0a565b925050608086013567ffffffffffffffff811115612e2057612e1f6142e8565b5b612e2c88828901612c8c565b9150509295509295909350565b600080600080600060a08688031215612e5557612e546142ed565b5b6000612e6388828901612b99565b9550506020612e7488828901612b99565b9450506040612e8588828901612ce8565b9350506060612e9688828901612ce8565b925050608086013567ffffffffffffffff811115612eb757612eb66142e8565b5b612ec388828901612c8c565b9150509295509295909350565b60008060408385031215612ee757612ee66142ed565b5b6000612ef585828601612b99565b9250506020612f0685828601612c38565b9150509250929050565b60008060408385031215612f2757612f266142ed565b5b6000612f3585828601612b99565b9250506020612f4685828601612ce8565b9150509250929050565b60008060408385031215612f6757612f666142ed565b5b600083013567ffffffffffffffff811115612f8557612f846142e8565b5b612f9185828601612bae565b925050602083013567ffffffffffffffff811115612fb257612fb16142e8565b5b612fbe85828601612c0a565b9150509250929050565b600060208284031215612fde57612fdd6142ed565b5b6000612fec84828501612c4d565b91505092915050565b60008060006060848603121561300e5761300d6142ed565b5b600061301c86828701612c4d565b935050602084013567ffffffffffffffff81111561303d5761303c6142e8565b5b61304986828701612bdc565b925050604061305a86828701612c4d565b9150509250925092565b60006020828403121561307a576130796142ed565b5b600061308884828501612c62565b91505092915050565b6000602082840312156130a7576130a66142ed565b5b60006130b584828501612c77565b91505092915050565b6000602082840312156130d4576130d36142ed565b5b600082013567ffffffffffffffff8111156130f2576130f16142e8565b5b6130fe84828501612cba565b91505092915050565b60006020828403121561311d5761311c6142ed565b5b600061312b84828501612ce8565b91505092915050565b6000806040838503121561314b5761314a6142ed565b5b600061315985828601612ce8565b925050602061316a85828601612ce8565b9150509250929050565b60008060006060848603121561318d5761318c6142ed565b5b600061319b86828701612ce8565b93505060206131ac86828701612ce8565b925050604084013567ffffffffffffffff8111156131cd576131cc6142e8565b5b6131d986828701612bdc565b9150509250925092565b60006131ef8383613692565b60208301905092915050565b61320481613fdd565b82525050565b61321b61321682613fdd565b614156565b82525050565b600061322c82613ceb565b6132368185613d19565b935061324183613cc6565b8060005b8381101561327257815161325988826131e3565b975061326483613d0c565b925050600181019050613245565b5085935050505092915050565b61328881613fef565b82525050565b61329781613ffb565b82525050565b6132ae6132a982613ffb565b614168565b82525050565b60006132bf82613cf6565b6132c98185613d2a565b93506132d9818560208601614077565b6132e2816142f2565b840191505092915050565b60006132f882613d01565b6133028185613d3b565b9350613312818560208601614077565b61331b816142f2565b840191505092915050565b600061333182613d01565b61333b8185613d4c565b935061334b818560208601614077565b80840191505092915050565b60008154613364816140aa565b61336e8186613d4c565b94506001821660008114613389576001811461339a576133cd565b60ff198316865281860193506133cd565b6133a385613cd6565b60005b838110156133c5578154818901526001820191506020810190506133a6565b838801955050505b50505092915050565b60006133e3603983613d3b565b91506133ee8261431d565b604082019050919050565b6000613406603d83613d3b565b91506134118261436c565b604082019050919050565b6000613429602683613d3b565b9150613434826143bb565b604082019050919050565b600061344c603383613d3b565b91506134578261440a565b604082019050919050565b600061346f603783613d3b565b915061347a82614459565b604082019050919050565b6000613492604283613d3b565b915061349d826144a8565b606082019050919050565b60006134b5604c83613d3b565b91506134c08261451d565b606082019050919050565b60006134d8600f83613d3b565b91506134e382614592565b602082019050919050565b60006134fb603c83613d3b565b9150613506826145bb565b604082019050919050565b600061351e601683613d3b565b91506135298261460a565b602082019050919050565b6000613541600583613d4c565b915061354c82614633565b600582019050919050565b6000613564602083613d3b565b915061356f8261465c565b602082019050919050565b6000613587603683613d3b565b915061359282614685565b604082019050919050565b60006135aa604783613d3b565b91506135b5826146d4565b606082019050919050565b60006135cd603883613d3b565b91506135d882614749565b604082019050919050565b60006135f0602083613d3b565b91506135fb82614798565b602082019050919050565b6000613613604583613d3b565b915061361e826147c1565b606082019050919050565b6000613636603e83613d3b565b915061364182614836565b604082019050919050565b6000613659603283613d3b565b915061366482614885565b604082019050919050565b600061367c601f83613d3b565b9150613687826148d4565b602082019050919050565b61369b81614051565b82525050565b6136aa81614051565b82525050565b6136c16136bc82614051565b614184565b82525050565b6136d08161405b565b82525050565b60006136e2828661320a565b6014820191506136f282856136b0565b60208201915061370282846136b0565b602082019150819050949350505050565b600061371f828561329d565b60208201915061372f828461329d565b6020820191508190509392505050565b600061374b8285613357565b91506137578284613326565b915061376282613534565b91508190509392505050565b600060208201905061378360008301846131fb565b92915050565b600060a08201905061379e60008301886131fb565b6137ab60208301876131fb565b81810360408301526137bd8186613221565b905081810360608301526137d18185613221565b905081810360808301526137e581846132b4565b90509695505050505050565b600060a08201905061380660008301886131fb565b61381360208301876131fb565b61382060408301866136a1565b61382d60608301856136a1565b818103608083015261383f81846132b4565b90509695505050505050565b600060208201905081810360008301526138658184613221565b905092915050565b600060408201905081810360008301526138878185613221565b9050818103602083015261389b8184613221565b90509392505050565b60006020820190506138b9600083018461327f565b92915050565b60006020820190506138d4600083018461328e565b92915050565b600060208201905081810360008301526138f481846132ed565b905092915050565b60006020820190508181036000830152613915816133d6565b9050919050565b60006020820190508181036000830152613935816133f9565b9050919050565b600060208201905081810360008301526139558161341c565b9050919050565b600060208201905081810360008301526139758161343f565b9050919050565b6000602082019050818103600083015261399581613462565b9050919050565b600060208201905081810360008301526139b581613485565b9050919050565b600060208201905081810360008301526139d5816134a8565b9050919050565b600060208201905081810360008301526139f5816134cb565b9050919050565b60006020820190508181036000830152613a15816134ee565b9050919050565b60006020820190508181036000830152613a3581613511565b9050919050565b60006020820190508181036000830152613a5581613557565b9050919050565b60006020820190508181036000830152613a758161357a565b9050919050565b60006020820190508181036000830152613a958161359d565b9050919050565b60006020820190508181036000830152613ab5816135c0565b9050919050565b60006020820190508181036000830152613ad5816135e3565b9050919050565b60006020820190508181036000830152613af581613606565b9050919050565b60006020820190508181036000830152613b1581613629565b9050919050565b60006020820190508181036000830152613b358161364c565b9050919050565b60006020820190508181036000830152613b558161366f565b9050919050565b6000602082019050613b7160008301846136a1565b92915050565b6000604082019050613b8c60008301856136a1565b613b9960208301846136a1565b9392505050565b6000602082019050613bb560008301846136c7565b92915050565b6000613bc5613bd6565b9050613bd182826140dc565b919050565b6000604051905090565b600067ffffffffffffffff821115613bfb57613bfa6142aa565b5b602082029050602081019050919050565b600067ffffffffffffffff821115613c2757613c266142aa565b5b602082029050602081019050919050565b600067ffffffffffffffff821115613c5357613c526142aa565b5b602082029050602081019050919050565b600067ffffffffffffffff821115613c7f57613c7e6142aa565b5b613c88826142f2565b9050602081019050919050565b600067ffffffffffffffff821115613cb057613caf6142aa565b5b613cb9826142f2565b9050602081019050919050565b6000819050602082019050919050565b60008190508160005260206000209050919050565b600081519050919050565b600081519050919050565b600081519050919050565b6000602082019050919050565b600082825260208201905092915050565b600082825260208201905092915050565b600082825260208201905092915050565b600081905092915050565b6000613d6282614051565b9150613d6d83614051565b9250827fffffffffffffffffffffffffffffffffffffffffffffffffffffffffffffffff03821115613da257613da16141bf565b5b828201905092915050565b6000613db882614051565b9150613dc383614051565b925082613dd357613dd26141ee565b5b828204905092915050565b6000808291508390505b6001851115613e2857808604811115613e0457613e036141bf565b5b6001851615613e135780820291505b8081029050613e2185614310565b9450613de8565b94509492505050565b6000613e3c82614051565b9150613e4783614051565b9250613e747fffffffffffffffffffffffffffffffffffffffffffffffffffffffffffffffff8484613e7c565b905092915050565b600082613e8c5760019050613f48565b81613e9a5760009050613f48565b8160018114613eb05760028114613eba57613ee9565b6001915050613f48565b60ff841115613ecc57613ecb6141bf565b5b8360020a915084821115613ee357613ee26141bf565b5b50613f48565b5060208310610133831016604e8410600b8410161715613f1e5782820a905083811115613f1957613f186141bf565b5b613f48565b613f2b8484846001613dde565b92509050818404811115613f4257613f416141bf565b5b81810290505b9392505050565b6000613f5a82614051565b9150613f6583614051565b9250817fffffffffffffffffffffffffffffffffffffffffffffffffffffffffffffffff0483118215151615613f9e57613f9d6141bf565b5b828202905092915050565b6000613fb482614051565b9150613fbf83614051565b925082821015613fd257613fd16141bf565b5b828203905092915050565b6000613fe882614031565b9050919050565b60008115159050919050565b6000819050919050565b60007fffffffff0000000000000000000000000000000000000000000000000000000082169050919050565b600073ffffffffffffffffffffffffffffffffffffffff82169050919050565b6000819050919050565b600060ff82169050919050565b82818337600083830152505050565b60005b8381101561409557808201518184015260208101905061407a565b838111156140a4576000848401525b50505050565b600060028204905060018216806140c257607f821691505b602082108114156140d6576140d561424c565b5b50919050565b6140e5826142f2565b810181811067ffffffffffffffff82111715614104576141036142aa565b5b80604052505050565b600061411882614051565b91507fffffffffffffffffffffffffffffffffffffffffffffffffffffffffffffffff82141561414b5761414a6141bf565b5b600182019050919050565b600061416182614172565b9050919050565b6000819050919050565b600061417d82614303565b9050919050565b6000819050919050565b600061419982614051565b91506141a483614051565b9250826141b4576141b36141ee565b5b828206905092915050565b7f4e487b7100000000000000000000000000000000000000000000000000000000600052601160045260246000fd5b7f4e487b7100000000000000000000000000000000000000000000000000000000600052601260045260246000fd5b7f4e487b7100000000000000000000000000000000000000000000000000000000600052602160045260246000fd5b7f4e487b7100000000000000000000000000000000000000000000000000000000600052602260045260246000fd5b7f4e487b7100000000000000000000000000000000000000000000000000000000600052603260045260246000fd5b7f4e487b7100000000000000000000000000000000000000000000000000000000600052604160045260246000fd5b600080fd5b600080fd5b600080fd5b600080fd5b600080fd5b6000601f19601f8301169050919050565b60008160601b9050919050565b60008160011c9050919050565b7f455243313135355061636b656442616c616e63652362616c616e63654f66426160008201527f7463683a20494e56414c49445f41525241595f4c454e47544800000000000000602082015250565b7f455243313135355061636b656442616c616e636523736166654261746368547260008201527f616e7366657246726f6d3a20494e56414c49445f524543495049454e54000000602082015250565b7f4f776e61626c653a206e6577206f776e657220697320746865207a65726f206160008201527f6464726573730000000000000000000000000000000000000000000000000000602082015250565b7f455243313135355061636b656442616c616e6365235f7669657755706461746560008201527f42696e56616c75653a20554e444552464c4f5700000000000000000000000000602082015250565b7f455243313135355061636b656442616c616e636523736166655472616e73666560008201527f7246726f6d3a20494e56414c49445f4f50455241544f52000000000000000000602082015250565b7f455243313135355061636b656442616c616e6365235f7361666542617463685460008201527f72616e7366657246726f6d3a20494e56414c49445f4152524159535f4c454e4760208201527f5448000000000000000000000000000000000000000000000000000000000000604082015250565b7f455243313135355061636b656442616c616e6365235f63616c6c6f6e4552433160008201527f313535426174636852656365697665643a20494e56414c49445f4f4e5f52454360208201527f454956455f4d4553534147450000000000000000000000000000000000000000604082015250565b7f4e6f742077686974656c69737465640000000000000000000000000000000000600082015250565b7f455243313135355061636b656442616c616e636523736166654261746368547260008201527f616e7366657246726f6d3a20494e56414c49445f4f50455241544f5200000000602082015250565b7f436f6e7472616374206973206e6f742061637469766500000000000000000000600082015250565b7f2e6a736f6e000000000000000000000000000000000000000000000000000000600082015250565b7f4f776e61626c653a2063616c6c6572206973206e6f7420746865206f776e6572600082015250565b7f455243313135355061636b656442616c616e6365235f7361666542617463685460008201527f72616e7366657246726f6d3a20554e444552464c4f5700000000000000000000602082015250565b7f455243313135355061636b656442616c616e6365235f63616c6c6f6e4552433160008201527f31353552656365697665643a20494e56414c49445f4f4e5f524543454956455f60208201527f4d45535341474500000000000000000000000000000000000000000000000000604082015250565b7f455243313135355061636b656442616c616e636523736166655472616e73666560008201527f7246726f6d3a20494e56414c49445f524543495049454e540000000000000000602082015250565b7f4d65726b6c6544726f703a2064726f7020616c726561647920636c61696d6564600082015250565b7f455243313135355061636b656442616c616e6365235f7669657755706461746560008201527f42696e56616c75653a20494e56414c49445f42494e5f57524954455f4f50455260208201527f4154494f4e000000000000000000000000000000000000000000000000000000604082015250565b7f455243313135354d696e744275726e5061636b656442616c616e6365235f626160008201527f7463684d696e743a20494e56414c49445f4152524159535f4c454e4754480000602082015250565b7f455243313135355061636b656442616c616e6365235f7669657755706461746560008201527f42696e56616c75653a204f564552464c4f570000000000000000000000000000602082015250565b7f5265656e7472616e637947756172643a207265656e7472616e742063616c6c00600082015250565b61490681613fdd565b811461491157600080fd5b50565b61491d81613fef565b811461492857600080fd5b50565b61493481613ffb565b811461493f57600080fd5b50565b61494b81614005565b811461495657600080fd5b50565b61496281614051565b811461496d57600080fd5b5056fea26469706673582212204459c64a2f3077a3cc5ed79d71d30c41848f1c8ab8b2496b23884a358e923a4864736f6c63430008070033",
  "linkReferences": {},
  "deployedLinkReferences": {}
}